:100000000C9434000C9451000C9451000C941F0378
:100010000C9451000C9451000C9451000C9451001C
:100020000C9451000C94FB020C9451000C94D702D8
:100030000C9451000C9451000C9451000C945100FC
:100040000C9451000C9451000C9451000C945100EC
:100050000C9451000C9451000C9451000C945100DC
:100060000C9451000C94510011241FBECFEFD8E026
:10007000DEBFCDBF11E0A0E0B1E0EEECFAE002C0DF
:1000800005900D92A230B107D9F721E0A2E0B1E0CE
:1000900001C01D92A733B207E1F70E944A030C94F6
:1000A00065050C940000FC01683080F460838BE2ED
:1000B00090E09283818389E290E0948383838DE64C
:1000C00090E09683858382E0878325C088EF860F42
:1000D000863078F4808385E290E09283818383E2A6
:1000E00090E0948383838BE690E0968385831782E8
:1000F00012C06E50663078F4608388E290E092839C
:10010000818386E290E0948383838CE690E09683FB
:10011000858381E08783A181B2812C9181E090E089
:10012000008002C0880F991F0A94E2F7822B8C93FB
:100130000895FC017894878121E030E0A90102C094
:10014000440F551F8A95E2F7CA01A8E6B0E09C91DA
:10015000892B8C93A581B6818C91008002C0220FDF
:10016000331F0A94E2F7282B2C930895EEE0F1E078
:10017000A085B1854C9121E030E0C901028402C024
:10018000880F991F0A94E2F7242F30E0282339239F
:1001900081E0232B09F480E00895E2E0F1E0A085FE
:1001A000B1854C9121E030E0C901028402C0880F82
:1001B000991F0A94E2F7242F30E02823392381E0A5
:1001C000232B09F480E00895AEE0B1E01896ED919C
:1001D000FC911997208181E090E01A960C9002C062
:1001E000880F991F0A94E2F7822B808361E082E0F6
:1001F00090E00E94B10208958EE091E00E94E60333
:100200008BB180688BB988B1886088B960E082E082
:1002100090E00E94B10208950E94B600882319F070
:100220000E94FC0008950E94E4000895282F809108
:100230000001821790F020931E0130910101822F5E
:10024000632F0E94590580931D01389F20191124A6
:1002500020931C0180E090E0089581E090E00895F3
:10026000EEE0F1E080819181A281B3810196A11D30
:10027000B11D80839183A283B383CF010E94D003F9
:10028000882309F4ACC081E090911A01911180E0BB
:1002900080931A01811156C088B1886088B9809115
:1002A0001D01811104C08BB180688BB908958BB199
:1002B0008F778BB980911D019BB190789BB9882372
:1002C00001F1813001F1823001F1833001F184309C
:1002D00001F1853001F1863001F1873079F1883004
:1002E000F1F08930F1F08A30F1F08B30F1F08C30A0
:1002F000F1F08D30F1F08E30F1F08F30F1F481E7D4
:100300001DC08FE31BC086E019C08BE517C08FE4CA
:1003100015C086E613C08DE611C08DE70FC08FE7CC
:100320000DC08FE60BC087E709C08CE707C089E3E3
:1003300005C08EE503C089E701C080E09BB1892B31
:100340008BB908958BB180688BB988B1877F88B9E4
:1003500080911C019BB190789BB9882301F1813079
:1003600001F1823001F1833001F1843001F18530F7
:1003700001F1863001F1873079F18830F1F0893070
:10038000F1F08A30F1F08B30F1F08C30F1F08D30FB
:10039000F1F08E30F1F08F30F1F481E71DC08FE382
:1003A0001BC086E019C08BE517C08FE415C086E638
:1003B00013C08DE611C08DE70FC08FE70DC08FE62B
:1003C0000BC087E709C08CE707C089E305C08EE54D
:1003D00003C089E701C080E09BB1892B8BB90895E8
:1003E000E2E0F1E080819181A281B3810196A11DBB
:1003F000B11D80839183A283B383CF010E94D00378
:100400008823C9F180911B0181110DC080911E01CB
:1004100090910001891718F010921E0110C08F5F93
:1004200080931E010CC080911E01811105C0809136
:10043000000180931E0103C0815080931E016091D2
:100440001E0180E090E00E94B1020E94CD00682F62
:1004500083E090E00E94B10220911E0130910101E1
:10046000822F632F0E94590580931D01389F201908
:10047000112420931C01089580931B01089561E0CD
:1004800080911B01811160E060931B0181E090E08D
:100490000E94B1020895A2E0B1E01896ED91FC919E
:1004A0001997208181E090E01A960C9002C0880F85
:1004B000991F0A94E2F7822B808361E083E090E049
:1004C0000E94B102089582E091E00E94E60360E09C
:1004D00083E090E00E94B10208958FEF8AB987B15E
:1004E000886087B920E030E040E85FE361E08EE0BB
:1004F00091E00E94AB0320E030E04AE754E462E080
:1005000082E091E00E94AB0380E090E00E94C8028C
:100510000E94160181E090E00E94C8020E943C0205
:1005200082E090E00E94C802882319F00E94E40053
:1005300002C00E94FC0083E090E00E94C802882371
:1005400019F00E944B0208950E94630208950E94D0
:10055000CD00882319F00E94630208950E944B0287
:100560000895811524E0920780F4F999FECF92BD99
:1005700081BD60BDF8948FB384608FBB8FB3826000
:100580008FBB789480E090E0089581E090E008953A
:10059000811524E0920748F4F999FECF92BD81BD00
:1005A0008FB381608FBB80B5089580E008951F925E
:1005B0000F920FB60F9211242F933F934F935F9397
:1005C0006F937F938F939F93AF93BF93EF93FF931B
:1005D0000E943001FF91EF91BF91AF919F918F9158
:1005E0007F916F915F914F913F912F910F900FBE2F
:1005F0000F901F9018951F920F920FB60F92112413
:100600002F933F934F935F936F937F938F939F931A
:10061000AF93BF93EF93FF930E94F001FF91EF918F
:10062000BF91AF919F918F917F916F915F914F910A
:100630003F912F910F900FBE0F901F9018951F9212
:100640000F920FB60F9211242F933F934F935F9306
:100650006F937F938F939F93AF93BF93EF93FF938A
:100660001D990E940C011C990E943F021B990E9437
:10067000A702FF91EF91BF91AF919F918F917F91D1
:100680006F915F914F913F912F910F900FBE0F90FF
:100690001F901895F894E0E6F0E088E180838EE002
:1006A000808378948081877F8083F894A89584B72D
:1006B000877F84BF78948081806480830E946D02EC
:1006C0006BE087E291E00E9453006CE08FE191E0E3
:1006D0000E9453006DE08FE291E00E9453008FE290
:1006E00091E00E9499008FE191E00E94990087E2D9
:1006F00091E00E949900F894A89584B7877F84BF01
:100700007894F9CFFC018385811108C082E085BD12
:100710008EE690E09187808712861BC0813081F43D
:100720008AE08093810080E091E09093890080933B
:1007300088008FE690E09187808781E0828709C0FA
:10074000823039F48093B10080E790E09187808710
:100750001286789408951F93CF93DF93EC01162FA0
:10076000CA01B901188219821A821B822FE632E16E
:1007700043E05EE30E94670420E030E040E05FE396
:100780000E94FB030E94D9046C837D838E839F8328
:100790001B87CE010E948203DF91CF911F910895A4
:1007A000FC01408151816281738184819581A681A0
:1007B000B781481759076A077B0730F0108211820A
:1007C0001282138281E0089580E00895FC01A085E3
:1007D000B1858C9121E030E0028402C0220F331FEA
:1007E0000A94E2F7209528232C931082118212821A
:1007F000138208955058BB27AA270E9412040C9414
:100800001F050E94110538F00E94180520F039F4E8
:100810009F3F19F426F40C940E050EF4E095E7FBC7
:100820000C940805E92F0E94300558F3BA176207A7
:1008300073078407950720F079F4A6F50C94520508
:100840000EF4E0950B2EBA2FA02D0B01B9019001EB
:100850000C01CA01A0011124FF27591B99F0593F2F
:1008600050F4503E68F11A16F040A22F232F342F77
:100870004427585FF3CF469537952795A795F040C5
:100880005395C9F77EF41F16BA0B620B730B840BDA
:10089000BAF09150A1F0FF0FBB1F661F771F881F92
:1008A000C2F70EC0BA0F621F731F841F48F48795EA
:1008B00077956795B795F7959E3F08F0B0CF9395DC
:1008C000880F08F09927EE0F9795879508950E9455
:1008D0007B040C941F050E94180558F00E94110516
:1008E00040F029F45F3F29F00C94080551110C9455
:1008F00053050C940E050E94300568F39923B1F35B
:10090000552391F3951B550BBB27AA276217730735
:10091000840738F09F5F5F4F220F331F441FAA1FC9
:10092000A9F335D00E2E3AF0E0E832D09150504085
:10093000E695001CCAF72BD0FE2F29D0660F771F33
:10094000881FBB1F261737074807AB07B0E809F019
:10095000BB0B802DBF01FF2793585F4F3AF09E3F9E
:10096000510578F00C9408050C9453055F3FE4F3AF
:10097000983ED4F3869577956795B795F7959F5FE1
:10098000C9F7880F911D9695879597F90895E1E02D
:10099000660F771F881FBB1F621773078407BA078C
:1009A00020F0621B730B840BBA0BEE1F88F7E095E7
:1009B00008950E94380588F09F5798F0B92F99271D
:1009C000B751B0F0E1F0660F771F881F991F1AF03A
:1009D000BA95C9F714C0B13091F00E945205B1E048
:1009E00008950C945205672F782F8827B85F39F047
:1009F000B93FCCF3869577956795B395D9F73EF4D3
:100A000090958095709561957F4F8F4F9F4F08957A
:100A100097F99F6780E870E060E008959FEF80ECB1
:100A2000089500240A941616170618060906089554
:100A300000240A9412161306140605060895092EBA
:100A40000394000C11F4882352F0BB0F40F4BF2B29
:100A500011F460FF04C06F5F7F4F8F4F9F4F089569
:100A600057FD9058440F551F59F05F3F71F047955F
:100A7000880F97FB991F61F09F3F79F08795089544
:100A8000121613061406551FF2CF4695F1DF08C063
:100A9000161617061806991FF1CF86957105610580
:100AA00008940895E894BB2766277727CB0197F928
:100AB0000895991B79E004C0991F961708F0961BBA
:0E0AC000881F7A95C9F780950895F894FFCFA6
:020ACE00630AB9
:00000001FF
